:1000000000100020F9000000D7000000D700000019
:10001000D7000000D7000000D7000000000000005B
:10002000000000000000000000000000D7000000F9
:10003000D700000000000000D7000000D70000003B
:1000400080B51748006850F02000154908600E2060
:10005000144908600E20144908601448006850F0E4
:100060000400124908604FF4FA7000F00BF80F48D2
:10007000006830F004000D4908604FF4FA7000F099
:1000800001F8EAE7002105E0521C40F66C439A4271
:10009000FADB491C814201DA0022F6E770470000D2
:1000A00008E60F40005402401C550240FC53024039
:1000B00000F00DF8002801D0AFF30080AFF300800E
:1000C0000020AFF30080FFF7BBFF00F002F8012033
:1000D000704700F001B8FEE70746384600F002F826
:1000E000FBE7000080B5AFF30080024A1100182042
:1000F000ABBEFBE726000200AFF30080AFF3008049
:04010000FFF7D6FF30
:04000005000000F9FE
:00000001FF
