:1000000000100020B1000000630000006300000049
:1000100063000000630000006300000000000000B7
:10002000000000000000000000000000630000006D
:100030006300000000000000630000006300000097
:100040004EF68851CEF20001086840F47000086056
:10005000BFF34F8FBFF36F8F4FF00070E1EE100AC8
:100060007047FEE700F00DF8002801D0AFF30080E4
:10007000AFF300800020AFF3008000F004F800F040
:1000800004F8012070470020704700F001B800001C
:100090000746384600F002F8FBE7000080B5AFF3F2
:1000A0000080024A11001820ABBEFBE726000200C8
:0C00B000AFF30080FFF7C4FFFFF7D4FFA0
:04000005000000B146
:00000001FF
