:020000040800F2
:100000000010002095050008E9050008E905000832
:1000100000000000000000000000000000000000E0
:10002000000000000000000000000000E9050008DA
:100030000000000000000000E9050008E9050008D4
:10004000E9050008E9050008E9050008E9050008D8
:10005000E9050008E9050008E9050008E9050008C8
:10006000E9050008E9050008E9050008E9050008B8
:10007000E9050008E9050008E9050008E9050008A8
:10008000E9050008E905000800000000E90500088E
:10009000E9050008E9050008E9050008E905000888
:1000A000E9050008E9050008E9050008E905000878
:1000B000E905000800000000E90500080000000054
:0400C0005FF808F1EC
:1000C80010402DE928409FE50030D4E5000053E3B7
:1000D8000500001A1C309FE5000053E318009F1527
:1000E80000F020130130A0E30030C4E51040BDE863
:1000F8001EFF2FE14804002000000000D40A000879
:100108001C309FE5000053E31EFF2F0110402DE92E
:1001180010109FE510009FE500F020E31040BDE8B7
:100128001EFF2FE1000000004C040020D40A000844
:10013800F0309FE5000053E3E4309F0503D0A0E1D1
:1001480000200FE10F0012E31500000AD1F021E3AF
:1001580003D0A0E101AA4DE20A30A0E1D7F021E3E3
:1001680003D0A0E1013A43E2DBF021E303D0A0E1B0
:10017800013A43E2D2F021E303D0A0E1023A43E29C
:10018800D3F021E303D0A0E1023943E2FF30C3E317
:10019800FF3CC3E3043003E5002053E9C02082E3B9
:1001A80002F021E101A843E20010B0E301B0A0E1B0
:1001B8000170A0E178009FE578209FE5002052E0DB
:1001C800360100EB60309FE5000053E30100000AB0
:1001D8000FE0A0E103F0A0E150309FE5000053E3F9
:1001E8000100000A0FE0A0E103F0A0E10000B0E385
:1001F8000010B0E30040B0E10150B0E138009FE5E5
:10020800000050E30100000A30009FE5C20100EB46
:10021800000100EB0400B0E10510B0E1130200EBAF
:10022800EF0000EB000008000000000000000000E4
:100238000000000048040020880400202409000869
:100248004409000880B582B000AF00F021F80E4BD9
:1002580008229A6100237B6002E07B6801337B609F
:100268007B680A4A9342F8DD074B802212039A61A1
:1002780000233B6002E03B6801333B603B68034A74
:100288009342F8DDE3E7C04600040048FEFF0100A2
:1002980080B500AF134B5A69124B8021C9020A433B
:1002A8005A61114B1A68104BC0218A431A600E4BD1
:1002B8001A680D4B40210A431A600B4B5A680A4BC7
:1002C80008218A435A60084B9A68074BC0218A4321
:1002D8009A60054BDA68044BC0218A43DA60C0464D
:1002E800BD4680BD0010024000040048E00A000836
:1002F800000000203C04002048040020880400205E
:1003080080B500AF1A4B1A68194B01210A431A60CD
:10031800174B5A68164B17490A405A60144B1A680B
:10032800134B15490A401A60114B1A68104B1349B0
:100338000A401A600E4B5A680D4B11490A405A6020
:100348000B4BDA6A0A4B0F218A43DA62084B1A6BA5
:10035800074B0C490A401A63054B5A6B044B0121A1
:100368008A435A63024B00229A60C046BD4680BD4C
:10037800001002400CB8FF08FFFFF6FEFFFFFBFF6E
:10038800FFFFC0FFECFEFFFF80B584B000AF002385
:10039800FB600023BB6000237B6000233B60314B84
:1003A8005B680C221340FB60FB68082B11D0FB68CC
:1003B800082B41D8FB68002B03D0FB68042B04D022
:1003C8003AE0294B294A1A603AE0274B274A1A6033
:1003D80036E0244B5A68F0239B031340BB60214B43
:1003E8005A6880235B0213407B60BB689B0C023316
:1003F800BB601C4BDB6A0F22134001333B607A68F9
:1004080080235B029A420AD13968184800F032F812
:1004180003001A00BB685A43134B1A6010E0B9680E
:100428000A005201521A93019B1ADB005B181B0247
:100438001A000D4B1A6003E00B4B0C4A1A60C046B9
:10044800084B5B681B090F221340094AD35CFB6009
:10045800054B1A68FB68DA40034B1A60C046BD4674
:1004680004B080BD001002400400002000127A0091
:10047800880A0008012051E21EFF2F013600003AC9
:10048800010050E12200009A020011E12300000A55
:100498000E0211E38111A0010830A0030130A0135E
:1004A800010251E3000051310112A0310332A031A1
:1004B800FAFFFF3A020151E3000051318110A031E7
:1004C8008330A031FAFFFF3A0020A0E3010050E199
:1004D8000100402003208221A10050E1A10040201A
:1004E800A3208221210150E12101402023218221E2
:1004F800A10150E1A1014020A3218221000050E385
:100508002332B0112112A011EFFFFF1A0200A0E15F
:100518001EFF2FE10100A0030000A0131EFF2FE122
:10052800010851E32118A0211020A0230020A033A6
:10053800010C51E32114A02108208222100051E36C
:100548002112A02104208222040051E30320828288
:10055800A12082903002A0E11EFF2FE1000050E3AD
:100568000000E013070000EA000051E3FAFFFF0A69
:1005780003402DE9BEFFFFEB0640BDE8920003E013
:10058800031041E01EFF2FE11EFF2FE15AE60E483F
:100598008546002103E00D4B5B58435004310C485D
:1005A8000C4B42189A42F6D30B4A02E00023136020
:1005B80004320A4B9A42F9D3FFF7A2FE00F02CF856
:1005C800FFF740FEFEE7000000100020E00A0008E8
:1005D800000000203C04002048040020880400207B
:1005E800FEE7000010402DE90010A0E30040A0E164
:1005F8007B0000EB18309FE5000093E53C3090E568
:10060800000053E30FE0A01113FF2F110400A0E135
:10061800150100EBA00A000870402DE96C609FE509
:100628006C509FE5056046E04661B0E10700000AAE
:100638000040A0E3045045E20430B5E5014084E2FF
:100648000FE0A0E113FF2FE1040056E1F9FFFF1AC4
:1006580040609FE540509FE5056046E00E0100EBD5
:100668004661B0E10700000A0040A0E3045045E2FB
:100678000430B5E5014084E20FE0A0E113FF2FE16B
:10068800040056E1F9FFFF1A7040BDE81EFF2FE194
:100698000000000000000000000000000000000052
:1006A800030010E34000000A000052E3012042E288
:1006B8001EFF2F010030A0E1FFC001E2020000EAA6
:1006C800012042E2010072E31EFF2F0101C0C3E4D2
:1006D800030013E3F9FFFF1A030052E32800009A0E
:1006E80070402DE9FFE001E20EE48EE10F0052E3D5
:1006F8000EE88EE12E00009A10C042E20F60CCE3B3
:10070800205083E22C42A0E1065085E010C083E22D
:1007180010E00CE50CE00CE508E00CE504E00CE565
:1007280010C08CE205005CE1F8FFFF1A01C084E20A
:100738000C0012E30CC283E00F2002E21800000A4A
:10074800043042E20330C3E3043083E203308CE038
:1007580004E08CE40C0053E1FCFFFF1A032002E2E2
:10076800000052E30400000AFF1001E2022083E0C7
:100778000110C3E4030052E1FCFFFF1A7040BDE81A
:100788001EFF2FE1000052E31EFF2F01FF1001E2C0
:10079800022083E00110C3E4030052E1FCFFFF1ACA
:1007A8001EFF2FE10C30A0E1ECFFFFEA0030A0E1D2
:1007B800C8FFFFEA03C0A0E1E0FFFFEA18309FE5A9
:1007C800000053E31EFF2F0110402DE90C009FE5A8
:1007D800510000EB1040BDE81EFF2FE100000000B3
:1007E80044090008F04F2DE900B0A0E120319FE551
:1007F8000CD04DE2000093E50170A0E104B08DE556
:10080800630000EB0C319FE5008093E5486198E5B3
:10081800000056E32800000A0190A0E300A0A0E32E
:10082800044096E5015054E22300004A014084E266
:10083800044186E0030000EA015045E2010075E347
:10084800044044E21C00000A000057E30200000ACA
:10085800003194E5070053E1F6FFFF1A043096E5EE
:10086800013043E2050053E1003094E50450860569
:1008780000A08415000053E3EEFFFF0A882196E5E7
:100888001915A0E1020011E104B096E51000001A64
:100898000FE0A0E113FF2FE1043096E50B0053E1D0
:1008A8001500001A483198E5060053E1E1FFFF0AF8
:1008B8000360A0E1000056E3D8FFFF1A50309FE51F
:1008C800000093E5380000EB0CD08DE2F04FBDE856
:1008D8001EFF2FE18C0196E5000011E10800001AC7
:1008E800801094E504009DE50FE0A0E113FF2FE1DF
:1008F800043096E50B0053E1E9FFFF0A486198E5EB
:10090800EBFFFFEA800094E50FE0A0E113FF2FE181
:10091800E0FFFFEA38040020A00A00080030A0E346
:1009280010402DE90010A0E10320A0E10300A0E1A0
:100938001E0000EB1040BDE81EFF2FE170402DE9BE
:1009480030509FE530409FE5044045E04441B0E128
:100958000500000A043035E5014044E20FE0A0E15B
:1009680013FF2FE1000054E3F9FFFF1A500000EBDA
:100978007040BDE81EFF2FE10000000000000000ED
:100988001EFF2FE11EFF2FE11EFF2FE11EFF2FE1AB
:100998001EFF2FE11EFF2FE10100A0E31EFF2FE144
:1009A8000100A0E31EFF2FE11EFF2FE11EFF2FE134
:1009B800F0412DE9A8809FE50040A0E1000098E5FE
:1009C8000360A0E10150A0E10270A0E1F0FFFFEB9D
:1009D80090309FE5003093E548C193E500005CE363
:1009E80053CF830204E09CE548C183051F005EE302
:1009F800170000CA000054E30800001A01308EE214
:100A080002E08EE2000098E504308CE50E518CE798
:100A1800E5FFFFEB0000A0E3F041BDE81EFF2FE17A
:100A28000130A0E30E118CE0887081E588219CE5F7
:100A3800133EA0E1032082E188218CE5086181E56D
:100A4800020054E38C219C05033082018C318C0513
:100A5800E9FFFFEA000098E5D3FFFFEB0000E0E3C1
:100A6800ECFFFFEA38040020A00A0008FEFFFFEAB6
:100A780000C09FE51CFF2FE14D02000800000000A8
:100A88000000000000000000010203040607080936
:0C0A980000000000010203041000002018
:100AA4000DC0A0E1F8DF2DE904B04CE228D04BE200
:080AB400F06F9DE81EFF2FE129
:100ABC000DC0A0E1F8DF2DE904B04CE228D04BE2E8
:080ACC00F06F9DE81EFF2FE111
:040AD400000000001E
:080AD80060F6FF7F0100000041
:100AE0000000000000127A0010000020000000004A
:100AF00000000000FC02002064030020CC03002062
:100B000000000000000000000000000000000000E5
:100B100000000000000000000000000000000000D5
:100B200000000000000000000000000000000000C5
:100B300000000000000000000000000000000000B5
:100B400000000000000000000000000000000000A5
:100B50000000000000000000000000000000000095
:100B60000000000000000000000000000000000085
:100B70000000000000000000000000000000000075
:100B80000000000000000000000000000000000065
:100B90000000000000000000010000000000000054
:100BA0000E33CDAB34126DE6ECDE05000B00000019
:100BB0000000000000000000000000000000000035
:100BC0000000000000000000000000000000000025
:100BD0000000000000000000000000000000000015
:100BE0000000000000000000000000000000000005
:0C0F10000000000000000000640400204D
:040F1C0008010008C0
:040F2000C8000008FD
:040F2400C4070008F6
:040000050800059555
:00000001FF
