:1000000000800020710200009902000099020000A7
:10001000990200009902000099020000000000000F
:100020000000000000000000000000009902000035
:1000300099020000000000009902000099020000EF
:100040009902000010402DE928409FE50030D4E5DA
:10005000000053E30500001A1C309FE5000053E345
:1000600018009F150000A0110130A0E30030C4E586
:100070001040BDE81EFF2FE14004002000000000FA
:100080005C0700001C309FE5000053E31EFF2F01BA
:1000900010402DE910109FE510009FE50000A0E141
:1000A0001040BDE81EFF2FE10000000044040020C6
:1000B0005C070000F0309FE5000053E3E4309F054B
:1000C00003D0A0E100200FE10F0012E31500000AA9
:1000D000D1F021E303D0A0E101AA4DE20A30A0E172
:1000E000D7F021E303D0A0E1013A43E2DBF021E3C2
:1000F00003D0A0E1013A43E2D2F021E303D0A0E132
:10010000023A43E2D3F021E303D0A0E1023943E213
:10011000FF30C3E3FF3CC3E3043003E5002053E9B1
:10012000C02082E302F021E101A843E20010B0E325
:1001300001B0A0E10170A0E178009FE578209FE583
:10014000002052E0830000EB60309FE5000053E3A5
:100150000100000A0FE0A0E103F0A0E150309FE5AC
:10016000000053E30100000A0FE0A0E103F0A0E16A
:100170000000B0E30010B0E30040B0E10150B0E196
:1001800038009FE5000050E30100000A30009FE5C1
:100190000F0100EB4D0000EB0400B0E10510B0E1F1
:1001A000080000FA3C0000EB00000800008000207E
:1001B0000000000000000000400400208004002037
:1001C000D4050000F405000080B500AF0D4B1B689E
:1001D0000C4A43F0200313600B4B0E221A600B4BAA
:1001E0000E221A600A4B0E221A604FF4FA7000F0C9
:1001F00011F8074B00221A604FF4FA7000F00AF869
:10020000F0E700BF08E60F40005402401C550240D2
:10021000FC53024080B485B000AF78600023FB60DF
:100220000DE00023BB6002E0BB680133BB60BB682C
:1002300040F66B429342F7DDFB680133FB60FA68DE
:100240007B689A42EDDB00BF00BF1437BD4680BC1F
:10025000704780B400AF054B1B68044A43F4700339
:10026000136000BFBD4680BC704700BF88ED00E052
:100270000649074A074B9A42BEBF51F8040B42F8A1
:10028000040BF8E7FFF7E5FFFFF79EFF68070000A4
:100290000000002040040020FEE700BF10402DE9D0
:1002A0000010A0E30040A0E17B0000EB18309FE5C8
:1002B000000093E53C3090E5000053E30FE0A0110F
:1002C00013FF2F110400A0E1150100EB58070000F7
:1002D00070402DE96C609FE56C509FE5056046E03D
:1002E0004661B0E10700000A0040A0E3045045E287
:1002F0000430B5E5014084E20FE0A0E113FF2FE1F7
:10030000040056E1F9FFFF1A40609FE540509FE569
:10031000056046E0030100EB4661B0E10700000A1A
:100320000040A0E3045045E20430B5E5014084E21A
:100330000FE0A0E113FF2FE1040056E1F9FFFF1ADF
:100340007040BDE81EFF2FE134040020340400207B
:100350003C04002034040020030010E34000000AA5
:10036000000052E3012042E21EFF2F010030A0E115
:10037000FFC001E2020000EA012042E2010072E354
:100380001EFF2F0101C0C3E4030013E3F9FFFF1AAE
:10039000030052E32800009A70402DE9FFE001E2DB
:1003A0000EE48EE10F0052E30EE88EE12E00009A7B
:1003B00010C042E20F60CCE3205083E22C42A0E167
:1003C000065085E010C083E210E00CE50CE00CE57F
:1003D00008E00CE504E00CE510C08CE205005CE1EF
:1003E000F8FFFF1A01C084E20C0012E30CC283E0A4
:1003F0000F2002E21800000A043042E20330C3E397
:10040000043083E203308CE004E08CE40C0053E120
:10041000FCFFFF1A032002E2000052E30400000A7E
:10042000FF1001E2022083E00110C3E4030052E167
:10043000FCFFFF1A7040BDE81EFF2FE1000052E3F1
:100440001EFF2F01FF1001E2022083E00110C3E430
:10045000030052E1FCFFFF1A1EFF2FE10C30A0E168
:10046000ECFFFFEA0030A0E1C8FFFFEA03C0A0E113
:10047000E0FFFFEA18309FE5000053E31EFF2F0165
:1004800010402DE90C009FE5510000EB1040BDE845
:100490001EFF2FE100000000F4050000F04F2DE9E1
:1004A00000B0A0E120319FE50CD04DE2000093E5C3
:1004B0000170A0E104B08DE5630000EB0C319FE515
:1004C000008093E5486198E5000056E32800000AA3
:1004D0000190A0E300A0A0E3044096E5015054E29F
:1004E0002300004A014084E2044186E0030000EA60
:1004F000015045E2010075E3044044E21C00000A9B
:10050000000057E30200000A003194E5070053E1C0
:10051000F6FFFF1A043096E5013043E2050053E18F
:10052000003094E50450860500A08415000053E3D4
:10053000EEFFFF0A882196E51915A0E1020011E1FE
:1005400004B096E51000001A0FE0A0E113FF2FE1C0
:10055000043096E50B0053E11500001A483198E588
:10056000060053E1E1FFFF0A0360A0E1000056E34B
:10057000D8FFFF1A50309FE5000093E5380000EBEC
:100580000CD08DE2F04FBDE81EFF2FE18C0196E507
:10059000000011E10800001A801094E504009DE5B8
:1005A0000FE0A0E113FF2FE1043096E50B0053E1CB
:1005B000E9FFFF0A486198E5EBFFFFEA800094E558
:1005C0000FE0A0E113FF2FE1E0FFFFEA300400207D
:1005D000580700000030A0E310402DE90010A0E112
:1005E0000320A0E10300A0E11E0000EB1040BDE8E5
:1005F0001EFF2FE170402DE930509FE530409FE510
:10060000044045E04441B0E10500000A043035E50E
:10061000014044E20FE0A0E113FF2FE1000054E3AA
:10062000F9FFFF1A450000EB7040BDE81EFF2FE107
:10063000400400203C0400201EFF2FE11EFF2FE19C
:100640001EFF2FE11EFF2FE11EFF2FE11EFF2FE1F6
:100650000100A0E31EFF2FE10100A0E31EFF2FE138
:100660001EFF2FE11EFF2FE1F0412DE9A8809FE53D
:100670000040A0E1000098E50360A0E10150A0E186
:100680000270A0E1F0FFFFEB90309FE5003093E5B2
:1006900048C193E500005CE353CF830204E09CE58E
:1006A00048C183051F005EE3170000CA000054E341
:1006B0000800001A01308EE202E08EE2000098E5A8
:1006C00004308CE50E518CE7E5FFFFEB0000A0E362
:1006D000F041BDE81EFF2FE10130A0E30E118CE0D8
:1006E000887081E588219CE5133EA0E1032082E12A
:1006F00088218CE5086181E5020054E38C219C058A
:10070000033082018C318C05E9FFFFEA000098E597
:10071000D3FFFFEB0000E0E3ECFFFFEA3004002032
:1007200058070000FEFFFFEA0DC0A0E1F8DF2DE949
:1007300004B04CE228D04BE2F06F9DE81EFF2FE1A1
:100740000DC0A0E1F8DF2DE904B04CE228D04BE267
:10075000F06F9DE81EFF2FE1080000200000000060
:0807600054F9FF7F01000000C5
:10076800000000000800002000000000F402002043
:100778005C030020C403002000000000000000000B
:100788000000000000000000000000000000000061
:100798000000000000000000000000000000000051
:1007A8000000000000000000000000000000000041
:1007B8000000000000000000000000000000000031
:1007C8000000000000000000000000000000000021
:1007D8000000000000000000000000000000000011
:1007E8000000000000000000000000000000000001
:1007F80000000000000000000000000000000000F1
:1008080000000000000000000000000000000000E0
:1008180001000000000000000E33CDAB34126DE67D
:10082800ECDE05000B0000000000000000000000E6
:1008380000000000000000000000000000000000B0
:1008480000000000000000000000000000000000A0
:100858000000000000000000000000000000000090
:100868000000000000000000000000000000000080
:100B98005C0400207404000084000000440000008D
:00000001FF
